{
  "contracts/ChainlinkRateProvider.sol": {
    "ChainlinkRateProvider": {
      "abi": [
        {
          "inputs": [
            {
              "internalType": "contract FeedRegistryInterface",
              "name": "_registry",
              "type": "address"
            },
            {
              "internalType": "address",
              "name": "_base",
              "type": "address"
            },
            {
              "internalType": "address",
              "name": "_quote",
              "type": "address"
            }
          ],
          "stateMutability": "nonpayable",
          "type": "constructor"
        },
        {
          "inputs": [],
          "name": "base",
          "outputs": [
            {
              "internalType": "address",
              "name": "",
              "type": "address"
            }
          ],
          "stateMutability": "view",
          "type": "function"
        },
        {
          "inputs": [],
          "name": "getRate",
          "outputs": [
            {
              "internalType": "uint256",
              "name": "",
              "type": "uint256"
            }
          ],
          "stateMutability": "view",
          "type": "function"
        },
        {
          "inputs": [],
          "name": "quote",
          "outputs": [
            {
              "internalType": "address",
              "name": "",
              "type": "address"
            }
          ],
          "stateMutability": "view",
          "type": "function"
        },
        {
          "inputs": [],
          "name": "registry",
          "outputs": [
            {
              "internalType": "contract FeedRegistryInterface",
              "name": "",
              "type": "address"
            }
          ],
          "stateMutability": "view",
          "type": "function"
        },
        {
          "inputs": [],
          "name": "updateCachedFeed",
          "outputs": [],
          "stateMutability": "nonpayable",
          "type": "function"
        }
      ],
      "evm": {
        "bytecode": {
          "linkReferences": {},
          "object": "60e06040523480156200001157600080fd5b5060405162000afc38038062000afc8339810160408190526200003491620001e2565b6001600160601b0319606084811b821660805283811b821660a05282901b1660c05260405163d2edb6dd60e01b81526001600160a01b038084166004830152808316602483015284169063d2edb6dd9060440160206040518083038186803b158015620000a057600080fd5b505afa158015620000b5573d6000803e3d6000fd5b505050506040513d601f19601f82011682018060405250810190620000db9190620001bb565b600080546001600160a01b0319166001600160a01b039290921691821790556040805163313ce56760e01b815290516200018a92601292909163313ce56791600480820192602092909190829003018186803b1580156200013b57600080fd5b505afa15801562000150573d6000803e3d6000fd5b505050506040513d601f19601f8201168201806040525081019062000176919062000236565b60ff16620001a460201b620004431760201c565b6200019790600a620002a4565b60015550620003a9915050565b6000620001b2828462000360565b90505b92915050565b600060208284031215620001ce57600080fd5b8151620001db8162000390565b9392505050565b600080600060608486031215620001f857600080fd5b8351620002058162000390565b6020850151909350620002188162000390565b60408501519092506200022b8162000390565b809150509250925092565b6000602082840312156200024957600080fd5b815160ff81168114620001db57600080fd5b600181815b808511156200029c5781600019048211156200028057620002806200037a565b808516156200028e57918102915b93841c939080029062000260565b509250929050565b6000620001b28383600082620002bd57506001620001b5565b81620002cc57506000620001b5565b8160018114620002e55760028114620002f05762000310565b6001915050620001b5565b60ff8411156200030457620003046200037a565b50506001821b620001b5565b5060208310610133831016604e8410600b841016171562000335575081810a620001b5565b6200034183836200025b565b80600019048211156200035857620003586200037a565b029392505050565b6000828210156200037557620003756200037a565b500390565b634e487b7160e01b600052601160045260246000fd5b6001600160a01b0381168114620003a657600080fd5b50565b60805160601c60a05160601c60c05160601c610707620003f56000396000818161010901526102ba0152600081816071015261029201526000818160d801526102e501526107076000f3fe608060405234801561001057600080fd5b50600436106100675760003560e01c80637b103999116100505780637b103999146100d35780637d035248146100fa578063999b93af1461010457600080fd5b80635001f3b51461006c578063679aefce146100bd575b600080fd5b6100937f000000000000000000000000000000000000000000000000000000000000000081565b60405173ffffffffffffffffffffffffffffffffffffffff90911681526020015b60405180910390f35b6100c561012b565b6040519081526020016100b4565b6100937f000000000000000000000000000000000000000000000000000000000000000081565b610102610255565b005b6100937f000000000000000000000000000000000000000000000000000000000000000081565b60008054604080517ffeaf968c0000000000000000000000000000000000000000000000000000000081529051839273ffffffffffffffffffffffffffffffffffffffff169163feaf968c9160048083019260a0929190829003018186803b15801561019657600080fd5b505afa1580156101aa573d6000803e3d6000fd5b505050506040513d601f19601f820116820180604052508101906101ce91906104b4565b50505091505060008113610242576040517f08c379a000000000000000000000000000000000000000000000000000000000815260206004820152601b60248201527f496e76616c6964207072696365207261746520726573706f6e73650000000000604482015260640160405180910390fd5b60015461024f908261064e565b91505090565b6040517fd2edb6dd00000000000000000000000000000000000000000000000000000000815273ffffffffffffffffffffffffffffffffffffffff7f0000000000000000000000000000000000000000000000000000000000000000811660048301527f0000000000000000000000000000000000000000000000000000000000000000811660248301526000917f00000000000000000000000000000000000000000000000000000000000000009091169063d2edb6dd9060440160206040518083038186803b15801561032957600080fd5b505afa15801561033d573d6000803e3d6000fd5b505050506040513d601f19601f820116820180604052508101906103619190610477565b90506103ee60128273ffffffffffffffffffffffffffffffffffffffff1663313ce5676040518163ffffffff1660e01b815260040160206040518083038186803b1580156103ae57600080fd5b505afa1580156103c2573d6000803e3d6000fd5b505050506040513d601f19601f820116820180604052508101906103e69190610504565b60ff16610443565b6103f990600a610588565b600155600080547fffffffffffffffffffffffff00000000000000000000000000000000000000001673ffffffffffffffffffffffffffffffffffffffff92909216919091179055565b600061044f828461068b565b90505b92915050565b805169ffffffffffffffffffff8116811461047257600080fd5b919050565b60006020828403121561048957600080fd5b815173ffffffffffffffffffffffffffffffffffffffff811681146104ad57600080fd5b9392505050565b600080600080600060a086880312156104cc57600080fd5b6104d586610458565b94506020860151935060408601519250606086015191506104f860808701610458565b90509295509295909350565b60006020828403121561051657600080fd5b815160ff811681146104ad57600080fd5b600181815b8085111561058057817fffffffffffffffffffffffffffffffffffffffffffffffffffffffffffffffff04821115610566576105666106a2565b8085161561057357918102915b93841c939080029061052c565b509250929050565b600061044f838360008261059e57506001610452565b816105ab57506000610452565b81600181146105c157600281146105cb576105e7565b6001915050610452565b60ff8411156105dc576105dc6106a2565b50506001821b610452565b5060208310610133831016604e8410600b841016171561060a575081810a610452565b6106148383610527565b807fffffffffffffffffffffffffffffffffffffffffffffffffffffffffffffffff04821115610646576106466106a2565b029392505050565b6000817fffffffffffffffffffffffffffffffffffffffffffffffffffffffffffffffff0483118215151615610686576106866106a2565b500290565b60008282101561069d5761069d6106a2565b500390565b7f4e487b7100000000000000000000000000000000000000000000000000000000600052601160045260246000fdfea2646970667358221220854c54fa39b590a61b582b3076c1647eeff8b12c01b2f28efbb278e7c3cf289164736f6c63430008070033",
          "opcodes": "PUSH1 0xE0 PUSH1 0x40 MSTORE CALLVALUE DUP1 ISZERO PUSH3 0x11 JUMPI PUSH1 0x0 DUP1 REVERT JUMPDEST POP PUSH1 0x40 MLOAD PUSH3 0xAFC CODESIZE SUB DUP1 PUSH3 0xAFC DUP4 CODECOPY DUP2 ADD PUSH1 0x40 DUP2 SWAP1 MSTORE PUSH3 0x34 SWAP2 PUSH3 0x1E2 JUMP JUMPDEST PUSH1 0x1 PUSH1 0x1 PUSH1 0x60 SHL SUB NOT PUSH1 0x60 DUP5 DUP2 SHL DUP3 AND PUSH1 0x80 MSTORE DUP4 DUP2 SHL DUP3 AND PUSH1 0xA0 MSTORE DUP3 SWAP1 SHL AND PUSH1 0xC0 MSTORE PUSH1 0x40 MLOAD PUSH4 0xD2EDB6DD PUSH1 0xE0 SHL DUP2 MSTORE PUSH1 0x1 PUSH1 0x1 PUSH1 0xA0 SHL SUB DUP1 DUP5 AND PUSH1 0x4 DUP4 ADD MSTORE DUP1 DUP4 AND PUSH1 0x24 DUP4 ADD MSTORE DUP5 AND SWAP1 PUSH4 0xD2EDB6DD SWAP1 PUSH1 0x44 ADD PUSH1 0x20 PUSH1 0x40 MLOAD DUP1 DUP4 SUB DUP2 DUP7 DUP1 EXTCODESIZE ISZERO DUP1 ISZERO PUSH3 0xA0 JUMPI PUSH1 0x0 DUP1 REVERT JUMPDEST POP GAS STATICCALL ISZERO DUP1 ISZERO PUSH3 0xB5 JUMPI RETURNDATASIZE PUSH1 0x0 DUP1 RETURNDATACOPY RETURNDATASIZE PUSH1 0x0 REVERT JUMPDEST POP POP POP POP PUSH1 0x40 MLOAD RETURNDATASIZE PUSH1 0x1F NOT PUSH1 0x1F DUP3 ADD AND DUP3 ADD DUP1 PUSH1 0x40 MSTORE POP DUP2 ADD SWAP1 PUSH3 0xDB SWAP2 SWAP1 PUSH3 0x1BB JUMP JUMPDEST PUSH1 0x0 DUP1 SLOAD PUSH1 0x1 PUSH1 0x1 PUSH1 0xA0 SHL SUB NOT AND PUSH1 0x1 PUSH1 0x1 PUSH1 0xA0 SHL SUB SWAP3 SWAP1 SWAP3 AND SWAP2 DUP3 OR SWAP1 SSTORE PUSH1 0x40 DUP1 MLOAD PUSH4 0x313CE567 PUSH1 0xE0 SHL DUP2 MSTORE SWAP1 MLOAD PUSH3 0x18A SWAP3 PUSH1 0x12 SWAP3 SWAP1 SWAP2 PUSH4 0x313CE567 SWAP2 PUSH1 0x4 DUP1 DUP3 ADD SWAP3 PUSH1 0x20 SWAP3 SWAP1 SWAP2 SWAP1 DUP3 SWAP1 SUB ADD DUP2 DUP7 DUP1 EXTCODESIZE ISZERO DUP1 ISZERO PUSH3 0x13B JUMPI PUSH1 0x0 DUP1 REVERT JUMPDEST POP GAS STATICCALL ISZERO DUP1 ISZERO PUSH3 0x150 JUMPI RETURNDATASIZE PUSH1 0x0 DUP1 RETURNDATACOPY RETURNDATASIZE PUSH1 0x0 REVERT JUMPDEST POP POP POP POP PUSH1 0x40 MLOAD RETURNDATASIZE PUSH1 0x1F NOT PUSH1 0x1F DUP3 ADD AND DUP3 ADD DUP1 PUSH1 0x40 MSTORE POP DUP2 ADD SWAP1 PUSH3 0x176 SWAP2 SWAP1 PUSH3 0x236 JUMP JUMPDEST PUSH1 0xFF AND PUSH3 0x1A4 PUSH1 0x20 SHL PUSH3 0x443 OR PUSH1 0x20 SHR JUMP JUMPDEST PUSH3 0x197 SWAP1 PUSH1 0xA PUSH3 0x2A4 JUMP JUMPDEST PUSH1 0x1 SSTORE POP PUSH3 0x3A9 SWAP2 POP POP JUMP JUMPDEST PUSH1 0x0 PUSH3 0x1B2 DUP3 DUP5 PUSH3 0x360 JUMP JUMPDEST SWAP1 POP JUMPDEST SWAP3 SWAP2 POP POP JUMP JUMPDEST PUSH1 0x0 PUSH1 0x20 DUP3 DUP5 SUB SLT ISZERO PUSH3 0x1CE JUMPI PUSH1 0x0 DUP1 REVERT JUMPDEST DUP2 MLOAD PUSH3 0x1DB DUP2 PUSH3 0x390 JUMP JUMPDEST SWAP4 SWAP3 POP POP POP JUMP JUMPDEST PUSH1 0x0 DUP1 PUSH1 0x0 PUSH1 0x60 DUP5 DUP7 SUB SLT ISZERO PUSH3 0x1F8 JUMPI PUSH1 0x0 DUP1 REVERT JUMPDEST DUP4 MLOAD PUSH3 0x205 DUP2 PUSH3 0x390 JUMP JUMPDEST PUSH1 0x20 DUP6 ADD MLOAD SWAP1 SWAP4 POP PUSH3 0x218 DUP2 PUSH3 0x390 JUMP JUMPDEST PUSH1 0x40 DUP6 ADD MLOAD SWAP1 SWAP3 POP PUSH3 0x22B DUP2 PUSH3 0x390 JUMP JUMPDEST DUP1 SWAP2 POP POP SWAP3 POP SWAP3 POP SWAP3 JUMP JUMPDEST PUSH1 0x0 PUSH1 0x20 DUP3 DUP5 SUB SLT ISZERO PUSH3 0x249 JUMPI PUSH1 0x0 DUP1 REVERT JUMPDEST DUP2 MLOAD PUSH1 0xFF DUP2 AND DUP2 EQ PUSH3 0x1DB JUMPI PUSH1 0x0 DUP1 REVERT JUMPDEST PUSH1 0x1 DUP2 DUP2 JUMPDEST DUP1 DUP6 GT ISZERO PUSH3 0x29C JUMPI DUP2 PUSH1 0x0 NOT DIV DUP3 GT ISZERO PUSH3 0x280 JUMPI PUSH3 0x280 PUSH3 0x37A JUMP JUMPDEST DUP1 DUP6 AND ISZERO PUSH3 0x28E JUMPI SWAP2 DUP2 MUL SWAP2 JUMPDEST SWAP4 DUP5 SHR SWAP4 SWAP1 DUP1 MUL SWAP1 PUSH3 0x260 JUMP JUMPDEST POP SWAP3 POP SWAP3 SWAP1 POP JUMP JUMPDEST PUSH1 0x0 PUSH3 0x1B2 DUP4 DUP4 PUSH1 0x0 DUP3 PUSH3 0x2BD JUMPI POP PUSH1 0x1 PUSH3 0x1B5 JUMP JUMPDEST DUP2 PUSH3 0x2CC JUMPI POP PUSH1 0x0 PUSH3 0x1B5 JUMP JUMPDEST DUP2 PUSH1 0x1 DUP2 EQ PUSH3 0x2E5 JUMPI PUSH1 0x2 DUP2 EQ PUSH3 0x2F0 JUMPI PUSH3 0x310 JUMP JUMPDEST PUSH1 0x1 SWAP2 POP POP PUSH3 0x1B5 JUMP JUMPDEST PUSH1 0xFF DUP5 GT ISZERO PUSH3 0x304 JUMPI PUSH3 0x304 PUSH3 0x37A JUMP JUMPDEST POP POP PUSH1 0x1 DUP3 SHL PUSH3 0x1B5 JUMP JUMPDEST POP PUSH1 0x20 DUP4 LT PUSH2 0x133 DUP4 LT AND PUSH1 0x4E DUP5 LT PUSH1 0xB DUP5 LT AND OR ISZERO PUSH3 0x335 JUMPI POP DUP2 DUP2 EXP PUSH3 0x1B5 JUMP JUMPDEST PUSH3 0x341 DUP4 DUP4 PUSH3 0x25B JUMP JUMPDEST DUP1 PUSH1 0x0 NOT DIV DUP3 GT ISZERO PUSH3 0x358 JUMPI PUSH3 0x358 PUSH3 0x37A JUMP JUMPDEST MUL SWAP4 SWAP3 POP POP POP JUMP JUMPDEST PUSH1 0x0 DUP3 DUP3 LT ISZERO PUSH3 0x375 JUMPI PUSH3 0x375 PUSH3 0x37A JUMP JUMPDEST POP SUB SWAP1 JUMP JUMPDEST PUSH4 0x4E487B71 PUSH1 0xE0 SHL PUSH1 0x0 MSTORE PUSH1 0x11 PUSH1 0x4 MSTORE PUSH1 0x24 PUSH1 0x0 REVERT JUMPDEST PUSH1 0x1 PUSH1 0x1 PUSH1 0xA0 SHL SUB DUP2 AND DUP2 EQ PUSH3 0x3A6 JUMPI PUSH1 0x0 DUP1 REVERT JUMPDEST POP JUMP JUMPDEST PUSH1 0x80 MLOAD PUSH1 0x60 SHR PUSH1 0xA0 MLOAD PUSH1 0x60 SHR PUSH1 0xC0 MLOAD PUSH1 0x60 SHR PUSH2 0x707 PUSH3 0x3F5 PUSH1 0x0 CODECOPY PUSH1 0x0 DUP2 DUP2 PUSH2 0x109 ADD MSTORE PUSH2 0x2BA ADD MSTORE PUSH1 0x0 DUP2 DUP2 PUSH1 0x71 ADD MSTORE PUSH2 0x292 ADD MSTORE PUSH1 0x0 DUP2 DUP2 PUSH1 0xD8 ADD MSTORE PUSH2 0x2E5 ADD MSTORE PUSH2 0x707 PUSH1 0x0 RETURN INVALID PUSH1 0x80 PUSH1 0x40 MSTORE CALLVALUE DUP1 ISZERO PUSH2 0x10 JUMPI PUSH1 0x0 DUP1 REVERT JUMPDEST POP PUSH1 0x4 CALLDATASIZE LT PUSH2 0x67 JUMPI PUSH1 0x0 CALLDATALOAD PUSH1 0xE0 SHR DUP1 PUSH4 0x7B103999 GT PUSH2 0x50 JUMPI DUP1 PUSH4 0x7B103999 EQ PUSH2 0xD3 JUMPI DUP1 PUSH4 0x7D035248 EQ PUSH2 0xFA JUMPI DUP1 PUSH4 0x999B93AF EQ PUSH2 0x104 JUMPI PUSH1 0x0 DUP1 REVERT JUMPDEST DUP1 PUSH4 0x5001F3B5 EQ PUSH2 0x6C JUMPI DUP1 PUSH4 0x679AEFCE EQ PUSH2 0xBD JUMPI JUMPDEST PUSH1 0x0 DUP1 REVERT JUMPDEST PUSH2 0x93 PUSH32 0x0 DUP2 JUMP JUMPDEST PUSH1 0x40 MLOAD PUSH20 0xFFFFFFFFFFFFFFFFFFFFFFFFFFFFFFFFFFFFFFFF SWAP1 SWAP2 AND DUP2 MSTORE PUSH1 0x20 ADD JUMPDEST PUSH1 0x40 MLOAD DUP1 SWAP2 SUB SWAP1 RETURN JUMPDEST PUSH2 0xC5 PUSH2 0x12B JUMP JUMPDEST PUSH1 0x40 MLOAD SWAP1 DUP2 MSTORE PUSH1 0x20 ADD PUSH2 0xB4 JUMP JUMPDEST PUSH2 0x93 PUSH32 0x0 DUP2 JUMP JUMPDEST PUSH2 0x102 PUSH2 0x255 JUMP JUMPDEST STOP JUMPDEST PUSH2 0x93 PUSH32 0x0 DUP2 JUMP JUMPDEST PUSH1 0x0 DUP1 SLOAD PUSH1 0x40 DUP1 MLOAD PUSH32 0xFEAF968C00000000000000000000000000000000000000000000000000000000 DUP2 MSTORE SWAP1 MLOAD DUP4 SWAP3 PUSH20 0xFFFFFFFFFFFFFFFFFFFFFFFFFFFFFFFFFFFFFFFF AND SWAP2 PUSH4 0xFEAF968C SWAP2 PUSH1 0x4 DUP1 DUP4 ADD SWAP3 PUSH1 0xA0 SWAP3 SWAP2 SWAP1 DUP3 SWAP1 SUB ADD DUP2 DUP7 DUP1 EXTCODESIZE ISZERO DUP1 ISZERO PUSH2 0x196 JUMPI PUSH1 0x0 DUP1 REVERT JUMPDEST POP GAS STATICCALL ISZERO DUP1 ISZERO PUSH2 0x1AA JUMPI RETURNDATASIZE PUSH1 0x0 DUP1 RETURNDATACOPY RETURNDATASIZE PUSH1 0x0 REVERT JUMPDEST POP POP POP POP PUSH1 0x40 MLOAD RETURNDATASIZE PUSH1 0x1F NOT PUSH1 0x1F DUP3 ADD AND DUP3 ADD DUP1 PUSH1 0x40 MSTORE POP DUP2 ADD SWAP1 PUSH2 0x1CE SWAP2 SWAP1 PUSH2 0x4B4 JUMP JUMPDEST POP POP POP SWAP2 POP POP PUSH1 0x0 DUP2 SGT PUSH2 0x242 JUMPI PUSH1 0x40 MLOAD PUSH32 0x8C379A000000000000000000000000000000000000000000000000000000000 DUP2 MSTORE PUSH1 0x20 PUSH1 0x4 DUP3 ADD MSTORE PUSH1 0x1B PUSH1 0x24 DUP3 ADD MSTORE PUSH32 0x496E76616C6964207072696365207261746520726573706F6E73650000000000 PUSH1 0x44 DUP3 ADD MSTORE PUSH1 0x64 ADD PUSH1 0x40 MLOAD DUP1 SWAP2 SUB SWAP1 REVERT JUMPDEST PUSH1 0x1 SLOAD PUSH2 0x24F SWAP1 DUP3 PUSH2 0x64E JUMP JUMPDEST SWAP2 POP POP SWAP1 JUMP JUMPDEST PUSH1 0x40 MLOAD PUSH32 0xD2EDB6DD00000000000000000000000000000000000000000000000000000000 DUP2 MSTORE PUSH20 0xFFFFFFFFFFFFFFFFFFFFFFFFFFFFFFFFFFFFFFFF PUSH32 0x0 DUP2 AND PUSH1 0x4 DUP4 ADD MSTORE PUSH32 0x0 DUP2 AND PUSH1 0x24 DUP4 ADD MSTORE PUSH1 0x0 SWAP2 PUSH32 0x0 SWAP1 SWAP2 AND SWAP1 PUSH4 0xD2EDB6DD SWAP1 PUSH1 0x44 ADD PUSH1 0x20 PUSH1 0x40 MLOAD DUP1 DUP4 SUB DUP2 DUP7 DUP1 EXTCODESIZE ISZERO DUP1 ISZERO PUSH2 0x329 JUMPI PUSH1 0x0 DUP1 REVERT JUMPDEST POP GAS STATICCALL ISZERO DUP1 ISZERO PUSH2 0x33D JUMPI RETURNDATASIZE PUSH1 0x0 DUP1 RETURNDATACOPY RETURNDATASIZE PUSH1 0x0 REVERT JUMPDEST POP POP POP POP PUSH1 0x40 MLOAD RETURNDATASIZE PUSH1 0x1F NOT PUSH1 0x1F DUP3 ADD AND DUP3 ADD DUP1 PUSH1 0x40 MSTORE POP DUP2 ADD SWAP1 PUSH2 0x361 SWAP2 SWAP1 PUSH2 0x477 JUMP JUMPDEST SWAP1 POP PUSH2 0x3EE PUSH1 0x12 DUP3 PUSH20 0xFFFFFFFFFFFFFFFFFFFFFFFFFFFFFFFFFFFFFFFF AND PUSH4 0x313CE567 PUSH1 0x40 MLOAD DUP2 PUSH4 0xFFFFFFFF AND PUSH1 0xE0 SHL DUP2 MSTORE PUSH1 0x4 ADD PUSH1 0x20 PUSH1 0x40 MLOAD DUP1 DUP4 SUB DUP2 DUP7 DUP1 EXTCODESIZE ISZERO DUP1 ISZERO PUSH2 0x3AE JUMPI PUSH1 0x0 DUP1 REVERT JUMPDEST POP GAS STATICCALL ISZERO DUP1 ISZERO PUSH2 0x3C2 JUMPI RETURNDATASIZE PUSH1 0x0 DUP1 RETURNDATACOPY RETURNDATASIZE PUSH1 0x0 REVERT JUMPDEST POP POP POP POP PUSH1 0x40 MLOAD RETURNDATASIZE PUSH1 0x1F NOT PUSH1 0x1F DUP3 ADD AND DUP3 ADD DUP1 PUSH1 0x40 MSTORE POP DUP2 ADD SWAP1 PUSH2 0x3E6 SWAP2 SWAP1 PUSH2 0x504 JUMP JUMPDEST PUSH1 0xFF AND PUSH2 0x443 JUMP JUMPDEST PUSH2 0x3F9 SWAP1 PUSH1 0xA PUSH2 0x588 JUMP JUMPDEST PUSH1 0x1 SSTORE PUSH1 0x0 DUP1 SLOAD PUSH32 0xFFFFFFFFFFFFFFFFFFFFFFFF0000000000000000000000000000000000000000 AND PUSH20 0xFFFFFFFFFFFFFFFFFFFFFFFFFFFFFFFFFFFFFFFF SWAP3 SWAP1 SWAP3 AND SWAP2 SWAP1 SWAP2 OR SWAP1 SSTORE JUMP JUMPDEST PUSH1 0x0 PUSH2 0x44F DUP3 DUP5 PUSH2 0x68B JUMP JUMPDEST SWAP1 POP JUMPDEST SWAP3 SWAP2 POP POP JUMP JUMPDEST DUP1 MLOAD PUSH10 0xFFFFFFFFFFFFFFFFFFFF DUP2 AND DUP2 EQ PUSH2 0x472 JUMPI PUSH1 0x0 DUP1 REVERT JUMPDEST SWAP2 SWAP1 POP JUMP JUMPDEST PUSH1 0x0 PUSH1 0x20 DUP3 DUP5 SUB SLT ISZERO PUSH2 0x489 JUMPI PUSH1 0x0 DUP1 REVERT JUMPDEST DUP2 MLOAD PUSH20 0xFFFFFFFFFFFFFFFFFFFFFFFFFFFFFFFFFFFFFFFF DUP2 AND DUP2 EQ PUSH2 0x4AD JUMPI PUSH1 0x0 DUP1 REVERT JUMPDEST SWAP4 SWAP3 POP POP POP JUMP JUMPDEST PUSH1 0x0 DUP1 PUSH1 0x0 DUP1 PUSH1 0x0 PUSH1 0xA0 DUP7 DUP9 SUB SLT ISZERO PUSH2 0x4CC JUMPI PUSH1 0x0 DUP1 REVERT JUMPDEST PUSH2 0x4D5 DUP7 PUSH2 0x458 JUMP JUMPDEST SWAP5 POP PUSH1 0x20 DUP7 ADD MLOAD SWAP4 POP PUSH1 0x40 DUP7 ADD MLOAD SWAP3 POP PUSH1 0x60 DUP7 ADD MLOAD SWAP2 POP PUSH2 0x4F8 PUSH1 0x80 DUP8 ADD PUSH2 0x458 JUMP JUMPDEST SWAP1 POP SWAP3 SWAP6 POP SWAP3 SWAP6 SWAP1 SWAP4 POP JUMP JUMPDEST PUSH1 0x0 PUSH1 0x20 DUP3 DUP5 SUB SLT ISZERO PUSH2 0x516 JUMPI PUSH1 0x0 DUP1 REVERT JUMPDEST DUP2 MLOAD PUSH1 0xFF DUP2 AND DUP2 EQ PUSH2 0x4AD JUMPI PUSH1 0x0 DUP1 REVERT JUMPDEST PUSH1 0x1 DUP2 DUP2 JUMPDEST DUP1 DUP6 GT ISZERO PUSH2 0x580 JUMPI DUP2 PUSH32 0xFFFFFFFFFFFFFFFFFFFFFFFFFFFFFFFFFFFFFFFFFFFFFFFFFFFFFFFFFFFFFFFF DIV DUP3 GT ISZERO PUSH2 0x566 JUMPI PUSH2 0x566 PUSH2 0x6A2 JUMP JUMPDEST DUP1 DUP6 AND ISZERO PUSH2 0x573 JUMPI SWAP2 DUP2 MUL SWAP2 JUMPDEST SWAP4 DUP5 SHR SWAP4 SWAP1 DUP1 MUL SWAP1 PUSH2 0x52C JUMP JUMPDEST POP SWAP3 POP SWAP3 SWAP1 POP JUMP JUMPDEST PUSH1 0x0 PUSH2 0x44F DUP4 DUP4 PUSH1 0x0 DUP3 PUSH2 0x59E JUMPI POP PUSH1 0x1 PUSH2 0x452 JUMP JUMPDEST DUP2 PUSH2 0x5AB JUMPI POP PUSH1 0x0 PUSH2 0x452 JUMP JUMPDEST DUP2 PUSH1 0x1 DUP2 EQ PUSH2 0x5C1 JUMPI PUSH1 0x2 DUP2 EQ PUSH2 0x5CB JUMPI PUSH2 0x5E7 JUMP JUMPDEST PUSH1 0x1 SWAP2 POP POP PUSH2 0x452 JUMP JUMPDEST PUSH1 0xFF DUP5 GT ISZERO PUSH2 0x5DC JUMPI PUSH2 0x5DC PUSH2 0x6A2 JUMP JUMPDEST POP POP PUSH1 0x1 DUP3 SHL PUSH2 0x452 JUMP JUMPDEST POP PUSH1 0x20 DUP4 LT PUSH2 0x133 DUP4 LT AND PUSH1 0x4E DUP5 LT PUSH1 0xB DUP5 LT AND OR ISZERO PUSH2 0x60A JUMPI POP DUP2 DUP2 EXP PUSH2 0x452 JUMP JUMPDEST PUSH2 0x614 DUP4 DUP4 PUSH2 0x527 JUMP JUMPDEST DUP1 PUSH32 0xFFFFFFFFFFFFFFFFFFFFFFFFFFFFFFFFFFFFFFFFFFFFFFFFFFFFFFFFFFFFFFFF DIV DUP3 GT ISZERO PUSH2 0x646 JUMPI PUSH2 0x646 PUSH2 0x6A2 JUMP JUMPDEST MUL SWAP4 SWAP3 POP POP POP JUMP JUMPDEST PUSH1 0x0 DUP2 PUSH32 0xFFFFFFFFFFFFFFFFFFFFFFFFFFFFFFFFFFFFFFFFFFFFFFFFFFFFFFFFFFFFFFFF DIV DUP4 GT DUP3 ISZERO ISZERO AND ISZERO PUSH2 0x686 JUMPI PUSH2 0x686 PUSH2 0x6A2 JUMP JUMPDEST POP MUL SWAP1 JUMP JUMPDEST PUSH1 0x0 DUP3 DUP3 LT ISZERO PUSH2 0x69D JUMPI PUSH2 0x69D PUSH2 0x6A2 JUMP JUMPDEST POP SUB SWAP1 JUMP JUMPDEST PUSH32 0x4E487B7100000000000000000000000000000000000000000000000000000000 PUSH1 0x0 MSTORE PUSH1 0x11 PUSH1 0x4 MSTORE PUSH1 0x24 PUSH1 0x0 REVERT INVALID LOG2 PUSH5 0x6970667358 0x22 SLT KECCAK256 DUP6 0x4C SLOAD STATICCALL CODECOPY 0xB5 SWAP1 0xA6 SHL PC 0x2B ADDRESS PUSH23 0xC1647EEFF8B12C01B2F28EFBB278E7C3CF289164736F6C PUSH4 0x43000807 STOP CALLER "
        },
        "methodIdentifiers": {
          "base()": "5001f3b5",
          "getRate()": "679aefce",
          "quote()": "999b93af",
          "registry()": "7b103999",
          "updateCachedFeed()": "7d035248"
        }
      }
    }
  }
}